{
  "_format": "hh-sol-artifact-1",
  "contractName": "LJToken",
  "sourceName": "contracts/LJToken.sol",
  "abi": [
    {
      "inputs": [
        {
          "internalType": "address",
          "name": "_owner",
          "type": "address"
        }
      ],
      "stateMutability": "nonpayable",
      "type": "constructor"
    },
    {
      "anonymous": false,
      "inputs": [
        {
          "indexed": true,
          "internalType": "address",
          "name": "owner",
          "type": "address"
        },
        {
          "indexed": true,
          "internalType": "address",
          "name": "spender",
          "type": "address"
        },
        {
          "indexed": false,
          "internalType": "uint256",
          "name": "value",
          "type": "uint256"
        }
      ],
      "name": "Approval",
      "type": "event"
    },
    {
      "anonymous": false,
      "inputs": [
        {
          "indexed": true,
          "internalType": "bytes32",
          "name": "role",
          "type": "bytes32"
        },
        {
          "indexed": true,
          "internalType": "bytes32",
          "name": "previousAdminRole",
          "type": "bytes32"
        },
        {
          "indexed": true,
          "internalType": "bytes32",
          "name": "newAdminRole",
          "type": "bytes32"
        }
      ],
      "name": "RoleAdminChanged",
      "type": "event"
    },
    {
      "anonymous": false,
      "inputs": [
        {
          "indexed": true,
          "internalType": "bytes32",
          "name": "role",
          "type": "bytes32"
        },
        {
          "indexed": true,
          "internalType": "address",
          "name": "account",
          "type": "address"
        },
        {
          "indexed": true,
          "internalType": "address",
          "name": "sender",
          "type": "address"
        }
      ],
      "name": "RoleGranted",
      "type": "event"
    },
    {
      "anonymous": false,
      "inputs": [
        {
          "indexed": true,
          "internalType": "bytes32",
          "name": "role",
          "type": "bytes32"
        },
        {
          "indexed": true,
          "internalType": "address",
          "name": "account",
          "type": "address"
        },
        {
          "indexed": true,
          "internalType": "address",
          "name": "sender",
          "type": "address"
        }
      ],
      "name": "RoleRevoked",
      "type": "event"
    },
    {
      "anonymous": false,
      "inputs": [
        {
          "indexed": true,
          "internalType": "address",
          "name": "from",
          "type": "address"
        },
        {
          "indexed": true,
          "internalType": "address",
          "name": "to",
          "type": "address"
        },
        {
          "indexed": false,
          "internalType": "uint256",
          "name": "value",
          "type": "uint256"
        }
      ],
      "name": "Transfer",
      "type": "event"
    },
    {
      "inputs": [],
      "name": "DEFAULT_ADMIN_ROLE",
      "outputs": [
        {
          "internalType": "bytes32",
          "name": "",
          "type": "bytes32"
        }
      ],
      "stateMutability": "view",
      "type": "function"
    },
    {
      "inputs": [],
      "name": "MINTER_ROLE",
      "outputs": [
        {
          "internalType": "bytes32",
          "name": "",
          "type": "bytes32"
        }
      ],
      "stateMutability": "view",
      "type": "function"
    },
    {
      "inputs": [
        {
          "internalType": "address",
          "name": "owner",
          "type": "address"
        },
        {
          "internalType": "address",
          "name": "spender",
          "type": "address"
        }
      ],
      "name": "allowance",
      "outputs": [
        {
          "internalType": "uint256",
          "name": "",
          "type": "uint256"
        }
      ],
      "stateMutability": "view",
      "type": "function"
    },
    {
      "inputs": [
        {
          "internalType": "address",
          "name": "spender",
          "type": "address"
        },
        {
          "internalType": "uint256",
          "name": "amount",
          "type": "uint256"
        }
      ],
      "name": "approve",
      "outputs": [
        {
          "internalType": "bool",
          "name": "",
          "type": "bool"
        }
      ],
      "stateMutability": "nonpayable",
      "type": "function"
    },
    {
      "inputs": [
        {
          "internalType": "address",
          "name": "account",
          "type": "address"
        }
      ],
      "name": "balanceOf",
      "outputs": [
        {
          "internalType": "uint256",
          "name": "",
          "type": "uint256"
        }
      ],
      "stateMutability": "view",
      "type": "function"
    },
    {
      "inputs": [
        {
          "internalType": "uint256",
          "name": "amount",
          "type": "uint256"
        }
      ],
      "name": "burnTokens",
      "outputs": [],
      "stateMutability": "nonpayable",
      "type": "function"
    },
    {
      "inputs": [],
      "name": "buyToken",
      "outputs": [],
      "stateMutability": "payable",
      "type": "function"
    },
    {
      "inputs": [],
      "name": "decimals",
      "outputs": [
        {
          "internalType": "uint8",
          "name": "",
          "type": "uint8"
        }
      ],
      "stateMutability": "view",
      "type": "function"
    },
    {
      "inputs": [
        {
          "internalType": "address",
          "name": "spender",
          "type": "address"
        },
        {
          "internalType": "uint256",
          "name": "subtractedValue",
          "type": "uint256"
        }
      ],
      "name": "decreaseAllowance",
      "outputs": [
        {
          "internalType": "bool",
          "name": "",
          "type": "bool"
        }
      ],
      "stateMutability": "nonpayable",
      "type": "function"
    },
    {
      "inputs": [
        {
          "internalType": "bytes32",
          "name": "role",
          "type": "bytes32"
        }
      ],
      "name": "getRoleAdmin",
      "outputs": [
        {
          "internalType": "bytes32",
          "name": "",
          "type": "bytes32"
        }
      ],
      "stateMutability": "view",
      "type": "function"
    },
    {
      "inputs": [
        {
          "internalType": "bytes32",
          "name": "role",
          "type": "bytes32"
        },
        {
          "internalType": "address",
          "name": "account",
          "type": "address"
        }
      ],
      "name": "grantRole",
      "outputs": [],
      "stateMutability": "nonpayable",
      "type": "function"
    },
    {
      "inputs": [
        {
          "internalType": "bytes32",
          "name": "role",
          "type": "bytes32"
        },
        {
          "internalType": "address",
          "name": "account",
          "type": "address"
        }
      ],
      "name": "hasRole",
      "outputs": [
        {
          "internalType": "bool",
          "name": "",
          "type": "bool"
        }
      ],
      "stateMutability": "view",
      "type": "function"
    },
    {
      "inputs": [
        {
          "internalType": "address",
          "name": "spender",
          "type": "address"
        },
        {
          "internalType": "uint256",
          "name": "addedValue",
          "type": "uint256"
        }
      ],
      "name": "increaseAllowance",
      "outputs": [
        {
          "internalType": "bool",
          "name": "",
          "type": "bool"
        }
      ],
      "stateMutability": "nonpayable",
      "type": "function"
    },
    {
      "inputs": [],
      "name": "name",
      "outputs": [
        {
          "internalType": "string",
          "name": "",
          "type": "string"
        }
      ],
      "stateMutability": "view",
      "type": "function"
    },
    {
      "inputs": [],
      "name": "owner",
      "outputs": [
        {
          "internalType": "address",
          "name": "",
          "type": "address"
        }
      ],
      "stateMutability": "view",
      "type": "function"
    },
    {
      "inputs": [
        {
          "internalType": "address",
          "name": "seller",
          "type": "address"
        },
        {
          "internalType": "address",
          "name": "buyer",
          "type": "address"
        },
        {
          "internalType": "uint256",
          "name": "amount",
          "type": "uint256"
        }
      ],
      "name": "purchase",
      "outputs": [],
      "stateMutability": "nonpayable",
      "type": "function"
    },
    {
      "inputs": [
        {
          "internalType": "bytes32",
          "name": "role",
          "type": "bytes32"
        },
        {
          "internalType": "address",
          "name": "account",
          "type": "address"
        }
      ],
      "name": "renounceRole",
      "outputs": [],
      "stateMutability": "nonpayable",
      "type": "function"
    },
    {
      "inputs": [
        {
          "internalType": "bytes32",
          "name": "role",
          "type": "bytes32"
        },
        {
          "internalType": "address",
          "name": "account",
          "type": "address"
        }
      ],
      "name": "revokeRole",
      "outputs": [],
      "stateMutability": "nonpayable",
      "type": "function"
    },
    {
      "inputs": [
        {
          "internalType": "address",
          "name": "seller",
          "type": "address"
        }
      ],
      "name": "setMintAccess",
      "outputs": [],
      "stateMutability": "nonpayable",
      "type": "function"
    },
    {
      "inputs": [
        {
          "internalType": "bytes4",
          "name": "interfaceId",
          "type": "bytes4"
        }
      ],
      "name": "supportsInterface",
      "outputs": [
        {
          "internalType": "bool",
          "name": "",
          "type": "bool"
        }
      ],
      "stateMutability": "view",
      "type": "function"
    },
    {
      "inputs": [],
      "name": "symbol",
      "outputs": [
        {
          "internalType": "string",
          "name": "",
          "type": "string"
        }
      ],
      "stateMutability": "view",
      "type": "function"
    },
    {
      "inputs": [],
      "name": "totalSupply",
      "outputs": [
        {
          "internalType": "uint256",
          "name": "",
          "type": "uint256"
        }
      ],
      "stateMutability": "view",
      "type": "function"
    },
    {
      "inputs": [
        {
          "internalType": "address",
          "name": "to",
          "type": "address"
        },
        {
          "internalType": "uint256",
          "name": "amount",
          "type": "uint256"
        }
      ],
      "name": "transfer",
      "outputs": [
        {
          "internalType": "bool",
          "name": "",
          "type": "bool"
        }
      ],
      "stateMutability": "nonpayable",
      "type": "function"
    },
    {
      "inputs": [
        {
          "internalType": "address",
          "name": "from",
          "type": "address"
        },
        {
          "internalType": "address",
          "name": "to",
          "type": "address"
        },
        {
          "internalType": "uint256",
          "name": "amount",
          "type": "uint256"
        }
      ],
      "name": "transferFrom",
      "outputs": [
        {
          "internalType": "bool",
          "name": "",
          "type": "bool"
        }
      ],
      "stateMutability": "nonpayable",
      "type": "function"
    }
  ],
  "bytecode": "0x60806040523480156200001157600080fd5b5060405162002de038038062002de083398181016040528101906200003791906200017b565b6040518060400160405280600e81526020017f4c6f79616c747920546f6b656e730000000000000000000000000000000000008152506040518060400160405280600381526020017f4c4a5400000000000000000000000000000000000000000000000000000000008152508160039081620000b4919062000427565b508060049081620000c6919062000427565b50505080600660006101000a81548173ffffffffffffffffffffffffffffffffffffffff021916908373ffffffffffffffffffffffffffffffffffffffff160217905550506200050e565b600080fd5b600073ffffffffffffffffffffffffffffffffffffffff82169050919050565b6000620001438262000116565b9050919050565b620001558162000136565b81146200016157600080fd5b50565b60008151905062000175816200014a565b92915050565b60006020828403121562000194576200019362000111565b5b6000620001a48482850162000164565b91505092915050565b600081519050919050565b7f4e487b7100000000000000000000000000000000000000000000000000000000600052604160045260246000fd5b7f4e487b7100000000000000000000000000000000000000000000000000000000600052602260045260246000fd5b600060028204905060018216806200022f57607f821691505b602082108103620002455762000244620001e7565b5b50919050565b60008190508160005260206000209050919050565b60006020601f8301049050919050565b600082821b905092915050565b600060088302620002af7fffffffffffffffffffffffffffffffffffffffffffffffffffffffffffffffff8262000270565b620002bb868362000270565b95508019841693508086168417925050509392505050565b6000819050919050565b6000819050919050565b60006200030862000302620002fc84620002d3565b620002dd565b620002d3565b9050919050565b6000819050919050565b6200032483620002e7565b6200033c62000333826200030f565b8484546200027d565b825550505050565b600090565b6200035362000344565b6200036081848462000319565b505050565b5b8181101562000388576200037c60008262000349565b60018101905062000366565b5050565b601f821115620003d757620003a1816200024b565b620003ac8462000260565b81016020851015620003bc578190505b620003d4620003cb8562000260565b83018262000365565b50505b505050565b600082821c905092915050565b6000620003fc60001984600802620003dc565b1980831691505092915050565b6000620004178383620003e9565b9150826002028217905092915050565b6200043282620001ad565b67ffffffffffffffff8111156200044e576200044d620001b8565b5b6200045a825462000216565b620004678282856200038c565b600060209050601f8311600181146200049f57600084156200048a578287015190505b62000496858262000409565b86555062000506565b601f198416620004af866200024b565b60005b82811015620004d957848901518255600182019150602085019450602081019050620004b2565b86831015620004f95784890151620004f5601f891682620003e9565b8355505b6001600288020188555050505b505050505050565b6128c2806200051e6000396000f3fe60806040526004361061014b5760003560e01c806370a08231116100b6578063a48217191161006f578063a4821719146104de578063a9059cbb146104e8578063b201ca3b14610525578063d53913931461054e578063d547741f14610579578063dd62ed3e146105a25761014b565b806370a08231146103a65780638da5cb5b146103e357806391d148541461040e57806395d89b411461044b578063a217fddf14610476578063a457c2d7146104a15761014b565b80632f2ff15d116101085780632f2ff15d1461029a578063313ce567146102c357806336568abe146102ee578063395093511461031757806364044156146103545780636d1b229d1461037d5761014b565b806301ffc9a71461015057806306fdde031461018d578063095ea7b3146101b857806318160ddd146101f557806323b872dd14610220578063248a9ca31461025d575b600080fd5b34801561015c57600080fd5b5061017760048036038101906101729190611a92565b6105df565b6040516101849190611ada565b60405180910390f35b34801561019957600080fd5b506101a2610659565b6040516101af9190611b85565b60405180910390f35b3480156101c457600080fd5b506101df60048036038101906101da9190611c3b565b6106eb565b6040516101ec9190611ada565b60405180910390f35b34801561020157600080fd5b5061020a61070e565b6040516102179190611c8a565b60405180910390f35b34801561022c57600080fd5b5061024760048036038101906102429190611ca5565b610718565b6040516102549190611ada565b60405180910390f35b34801561026957600080fd5b50610284600480360381019061027f9190611d2e565b610747565b6040516102919190611d6a565b60405180910390f35b3480156102a657600080fd5b506102c160048036038101906102bc9190611d85565b610767565b005b3480156102cf57600080fd5b506102d8610788565b6040516102e59190611de1565b60405180910390f35b3480156102fa57600080fd5b5061031560048036038101906103109190611d85565b610791565b005b34801561032357600080fd5b5061033e60048036038101906103399190611c3b565b610814565b60405161034b9190611ada565b60405180910390f35b34801561036057600080fd5b5061037b60048036038101906103769190611ca5565b61084b565b005b34801561038957600080fd5b506103a4600480360381019061039f9190611dfc565b6108b5565b005b3480156103b257600080fd5b506103cd60048036038101906103c89190611e29565b6108d7565b6040516103da9190611c8a565b60405180910390f35b3480156103ef57600080fd5b506103f861091f565b6040516104059190611e65565b60405180910390f35b34801561041a57600080fd5b5061043560048036038101906104309190611d85565b610945565b6040516104429190611ada565b60405180910390f35b34801561045757600080fd5b506104606109b0565b60405161046d9190611b85565b60405180910390f35b34801561048257600080fd5b5061048b610a42565b6040516104989190611d6a565b60405180910390f35b3480156104ad57600080fd5b506104c860048036038101906104c39190611c3b565b610a49565b6040516104d59190611ada565b60405180910390f35b6104e6610ac0565b005b3480156104f457600080fd5b5061050f600480360381019061050a9190611c3b565b610b5b565b60405161051c9190611ada565b60405180910390f35b34801561053157600080fd5b5061054c60048036038101906105479190611e29565b610ba5565b005b34801561055a57600080fd5b50610563610c2c565b6040516105709190611d6a565b60405180910390f35b34801561058557600080fd5b506105a0600480360381019061059b9190611d85565b610c50565b005b3480156105ae57600080fd5b506105c960048036038101906105c49190611e80565b610c71565b6040516105d69190611c8a565b60405180910390f35b60007f7965db0b000000000000000000000000000000000000000000000000000000007bffffffffffffffffffffffffffffffffffffffffffffffffffffffff1916827bffffffffffffffffffffffffffffffffffffffffffffffffffffffff19161480610652575061065182610cf8565b5b9050919050565b60606003805461066890611eef565b80601f016020809104026020016040519081016040528092919081815260200182805461069490611eef565b80156106e15780601f106106b6576101008083540402835291602001916106e1565b820191906000526020600020905b8154815290600101906020018083116106c457829003601f168201915b5050505050905090565b6000806106f6610d62565b9050610703818585610d6a565b600191505092915050565b6000600254905090565b600080610723610d62565b9050610730858285610f33565b61073b858585610fbf565b60019150509392505050565b600060056000838152602001908152602001600020600101549050919050565b61077082610747565b61077981611235565b6107838383611249565b505050565b60006012905090565b610799610d62565b73ffffffffffffffffffffffffffffffffffffffff168173ffffffffffffffffffffffffffffffffffffffff1614610806576040517f08c379a00000000000000000000000000000000000000000000000000000000081526004016107fd90611f92565b60405180910390fd5b610810828261132a565b5050565b60008061081f610d62565b90506108408185856108318589610c71565b61083b9190611fe1565b610d6a565b600191505092915050565b600660009054906101000a900473ffffffffffffffffffffffffffffffffffffffff1673ffffffffffffffffffffffffffffffffffffffff163373ffffffffffffffffffffffffffffffffffffffff16146108a557600080fd5b6108b0838383610fbf565b505050565b806108bf336108d7565b10156108ca57600080fd5b6108d4338261140c565b50565b60008060008373ffffffffffffffffffffffffffffffffffffffff1673ffffffffffffffffffffffffffffffffffffffff168152602001908152602001600020549050919050565b600660009054906101000a900473ffffffffffffffffffffffffffffffffffffffff1681565b60006005600084815260200190815260200160002060000160008373ffffffffffffffffffffffffffffffffffffffff1673ffffffffffffffffffffffffffffffffffffffff16815260200190815260200160002060009054906101000a900460ff16905092915050565b6060600480546109bf90611eef565b80601f01602080910402602001604051908101604052809291908181526020018280546109eb90611eef565b8015610a385780601f10610a0d57610100808354040283529160200191610a38565b820191906000526020600020905b815481529060010190602001808311610a1b57829003601f168201915b5050505050905090565b6000801b81565b600080610a54610d62565b90506000610a628286610c71565b905083811015610aa7576040517f08c379a0000000000000000000000000000000000000000000000000000000008152600401610a9e90612087565b60405180910390fd5b610ab48286868403610d6a565b60019250505092915050565b610aea7f9f2df0fed2c77648de5860a4cc508cd0818c85b8b8a1ab4ceeef8d981c8956a633610945565b610b29576040517f08c379a0000000000000000000000000000000000000000000000000000000008152600401610b20906120f3565b60405180910390fd5b6000670de0b6b3a7640000346103e8610b429190612113565b610b4c9190612184565b9050610b5833826115d9565b50565b6000610b877f9f2df0fed2c77648de5860a4cc508cd0818c85b8b8a1ab4ceeef8d981c8956a633610945565b610b9057600080fd5b610b9b338484610fbf565b6001905092915050565b600660009054906101000a900473ffffffffffffffffffffffffffffffffffffffff1673ffffffffffffffffffffffffffffffffffffffff163373ffffffffffffffffffffffffffffffffffffffff1614610bff57600080fd5b610c297f9f2df0fed2c77648de5860a4cc508cd0818c85b8b8a1ab4ceeef8d981c8956a68261172f565b50565b7f9f2df0fed2c77648de5860a4cc508cd0818c85b8b8a1ab4ceeef8d981c8956a681565b610c5982610747565b610c6281611235565b610c6c838361132a565b505050565b6000600160008473ffffffffffffffffffffffffffffffffffffffff1673ffffffffffffffffffffffffffffffffffffffff16815260200190815260200160002060008373ffffffffffffffffffffffffffffffffffffffff1673ffffffffffffffffffffffffffffffffffffffff16815260200190815260200160002054905092915050565b60007f01ffc9a7000000000000000000000000000000000000000000000000000000007bffffffffffffffffffffffffffffffffffffffffffffffffffffffff1916827bffffffffffffffffffffffffffffffffffffffffffffffffffffffff1916149050919050565b600033905090565b600073ffffffffffffffffffffffffffffffffffffffff168373ffffffffffffffffffffffffffffffffffffffff1603610dd9576040517f08c379a0000000000000000000000000000000000000000000000000000000008152600401610dd090612227565b60405180910390fd5b600073ffffffffffffffffffffffffffffffffffffffff168273ffffffffffffffffffffffffffffffffffffffff1603610e48576040517f08c379a0000000000000000000000000000000000000000000000000000000008152600401610e3f906122b9565b60405180910390fd5b80600160008573ffffffffffffffffffffffffffffffffffffffff1673ffffffffffffffffffffffffffffffffffffffff16815260200190815260200160002060008473ffffffffffffffffffffffffffffffffffffffff1673ffffffffffffffffffffffffffffffffffffffff168152602001908152602001600020819055508173ffffffffffffffffffffffffffffffffffffffff168373ffffffffffffffffffffffffffffffffffffffff167f8c5be1e5ebec7d5bd14f71427d1e84f3dd0314c0f7b2291e5b200ac8c7c3b92583604051610f269190611c8a565b60405180910390a3505050565b6000610f3f8484610c71565b90507fffffffffffffffffffffffffffffffffffffffffffffffffffffffffffffffff8114610fb95781811015610fab576040517f08c379a0000000000000000000000000000000000000000000000000000000008152600401610fa290612325565b60405180910390fd5b610fb88484848403610d6a565b5b50505050565b600073ffffffffffffffffffffffffffffffffffffffff168373ffffffffffffffffffffffffffffffffffffffff160361102e576040517f08c379a0000000000000000000000000000000000000000000000000000000008152600401611025906123b7565b60405180910390fd5b600073ffffffffffffffffffffffffffffffffffffffff168273ffffffffffffffffffffffffffffffffffffffff160361109d576040517f08c379a000000000000000000000000000000000000000000000000000000000815260040161109490612449565b60405180910390fd5b6110a883838361173d565b60008060008573ffffffffffffffffffffffffffffffffffffffff1673ffffffffffffffffffffffffffffffffffffffff1681526020019081526020016000205490508181101561112e576040517f08c379a0000000000000000000000000000000000000000000000000000000008152600401611125906124db565b60405180910390fd5b8181036000808673ffffffffffffffffffffffffffffffffffffffff1673ffffffffffffffffffffffffffffffffffffffff16815260200190815260200160002081905550816000808573ffffffffffffffffffffffffffffffffffffffff1673ffffffffffffffffffffffffffffffffffffffff168152602001908152602001600020600082825401925050819055508273ffffffffffffffffffffffffffffffffffffffff168473ffffffffffffffffffffffffffffffffffffffff167fddf252ad1be2c89b69c2b068fc378daa952ba7f163c4a11628f55a4df523b3ef8460405161121c9190611c8a565b60405180910390a361122f848484611742565b50505050565b61124681611241610d62565b611747565b50565b6112538282610945565b6113265760016005600084815260200190815260200160002060000160008373ffffffffffffffffffffffffffffffffffffffff1673ffffffffffffffffffffffffffffffffffffffff16815260200190815260200160002060006101000a81548160ff0219169083151502179055506112cb610d62565b73ffffffffffffffffffffffffffffffffffffffff168173ffffffffffffffffffffffffffffffffffffffff16837f2f8788117e7eff1d82e926ec794901d17c78024a50270940304540a733656f0d60405160405180910390a45b5050565b6113348282610945565b156114085760006005600084815260200190815260200160002060000160008373ffffffffffffffffffffffffffffffffffffffff1673ffffffffffffffffffffffffffffffffffffffff16815260200190815260200160002060006101000a81548160ff0219169083151502179055506113ad610d62565b73ffffffffffffffffffffffffffffffffffffffff168173ffffffffffffffffffffffffffffffffffffffff16837ff6391f5c32d9c69d2a47ea670b442974b53935d1edc7fd64eb21e047a839171b60405160405180910390a45b5050565b600073ffffffffffffffffffffffffffffffffffffffff168273ffffffffffffffffffffffffffffffffffffffff160361147b576040517f08c379a00000000000000000000000000000000000000000000000000000000081526004016114729061256d565b60405180910390fd5b6114878260008361173d565b60008060008473ffffffffffffffffffffffffffffffffffffffff1673ffffffffffffffffffffffffffffffffffffffff1681526020019081526020016000205490508181101561150d576040517f08c379a0000000000000000000000000000000000000000000000000000000008152600401611504906125ff565b60405180910390fd5b8181036000808573ffffffffffffffffffffffffffffffffffffffff1673ffffffffffffffffffffffffffffffffffffffff1681526020019081526020016000208190555081600260008282540392505081905550600073ffffffffffffffffffffffffffffffffffffffff168373ffffffffffffffffffffffffffffffffffffffff167fddf252ad1be2c89b69c2b068fc378daa952ba7f163c4a11628f55a4df523b3ef846040516115c09190611c8a565b60405180910390a36115d483600084611742565b505050565b600073ffffffffffffffffffffffffffffffffffffffff168273ffffffffffffffffffffffffffffffffffffffff1603611648576040517f08c379a000000000000000000000000000000000000000000000000000000000815260040161163f9061266b565b60405180910390fd5b6116546000838361173d565b80600260008282546116669190611fe1565b92505081905550806000808473ffffffffffffffffffffffffffffffffffffffff1673ffffffffffffffffffffffffffffffffffffffff168152602001908152602001600020600082825401925050819055508173ffffffffffffffffffffffffffffffffffffffff16600073ffffffffffffffffffffffffffffffffffffffff167fddf252ad1be2c89b69c2b068fc378daa952ba7f163c4a11628f55a4df523b3ef836040516117179190611c8a565b60405180910390a361172b60008383611742565b5050565b6117398282611249565b5050565b505050565b505050565b6117518282610945565b6117c85761175e816117cc565b61176c8360001c60206117f9565b60405160200161177d92919061275f565b6040516020818303038152906040526040517f08c379a00000000000000000000000000000000000000000000000000000000081526004016117bf9190611b85565b60405180910390fd5b5050565b60606117f28273ffffffffffffffffffffffffffffffffffffffff16601460ff166117f9565b9050919050565b60606000600283600261180c9190612113565b6118169190611fe1565b67ffffffffffffffff81111561182f5761182e612799565b5b6040519080825280601f01601f1916602001820160405280156118615781602001600182028036833780820191505090505b5090507f300000000000000000000000000000000000000000000000000000000000000081600081518110611899576118986127c8565b5b60200101907effffffffffffffffffffffffffffffffffffffffffffffffffffffffffffff1916908160001a9053507f7800000000000000000000000000000000000000000000000000000000000000816001815181106118fd576118fc6127c8565b5b60200101907effffffffffffffffffffffffffffffffffffffffffffffffffffffffffffff1916908160001a9053506000600184600261193d9190612113565b6119479190611fe1565b90505b60018111156119e7577f3031323334353637383961626364656600000000000000000000000000000000600f861660108110611989576119886127c8565b5b1a60f81b8282815181106119a05761199f6127c8565b5b60200101907effffffffffffffffffffffffffffffffffffffffffffffffffffffffffffff1916908160001a905350600485901c9450806119e0906127f7565b905061194a565b5060008414611a2b576040517f08c379a0000000000000000000000000000000000000000000000000000000008152600401611a229061286c565b60405180910390fd5b8091505092915050565b600080fd5b60007fffffffff0000000000000000000000000000000000000000000000000000000082169050919050565b611a6f81611a3a565b8114611a7a57600080fd5b50565b600081359050611a8c81611a66565b92915050565b600060208284031215611aa857611aa7611a35565b5b6000611ab684828501611a7d565b91505092915050565b60008115159050919050565b611ad481611abf565b82525050565b6000602082019050611aef6000830184611acb565b92915050565b600081519050919050565b600082825260208201905092915050565b60005b83811015611b2f578082015181840152602081019050611b14565b60008484015250505050565b6000601f19601f8301169050919050565b6000611b5782611af5565b611b618185611b00565b9350611b71818560208601611b11565b611b7a81611b3b565b840191505092915050565b60006020820190508181036000830152611b9f8184611b4c565b905092915050565b600073ffffffffffffffffffffffffffffffffffffffff82169050919050565b6000611bd282611ba7565b9050919050565b611be281611bc7565b8114611bed57600080fd5b50565b600081359050611bff81611bd9565b92915050565b6000819050919050565b611c1881611c05565b8114611c2357600080fd5b50565b600081359050611c3581611c0f565b92915050565b60008060408385031215611c5257611c51611a35565b5b6000611c6085828601611bf0565b9250506020611c7185828601611c26565b9150509250929050565b611c8481611c05565b82525050565b6000602082019050611c9f6000830184611c7b565b92915050565b600080600060608486031215611cbe57611cbd611a35565b5b6000611ccc86828701611bf0565b9350506020611cdd86828701611bf0565b9250506040611cee86828701611c26565b9150509250925092565b6000819050919050565b611d0b81611cf8565b8114611d1657600080fd5b50565b600081359050611d2881611d02565b92915050565b600060208284031215611d4457611d43611a35565b5b6000611d5284828501611d19565b91505092915050565b611d6481611cf8565b82525050565b6000602082019050611d7f6000830184611d5b565b92915050565b60008060408385031215611d9c57611d9b611a35565b5b6000611daa85828601611d19565b9250506020611dbb85828601611bf0565b9150509250929050565b600060ff82169050919050565b611ddb81611dc5565b82525050565b6000602082019050611df66000830184611dd2565b92915050565b600060208284031215611e1257611e11611a35565b5b6000611e2084828501611c26565b91505092915050565b600060208284031215611e3f57611e3e611a35565b5b6000611e4d84828501611bf0565b91505092915050565b611e5f81611bc7565b82525050565b6000602082019050611e7a6000830184611e56565b92915050565b60008060408385031215611e9757611e96611a35565b5b6000611ea585828601611bf0565b9250506020611eb685828601611bf0565b9150509250929050565b7f4e487b7100000000000000000000000000000000000000000000000000000000600052602260045260246000fd5b60006002820490506001821680611f0757607f821691505b602082108103611f1a57611f19611ec0565b5b50919050565b7f416363657373436f6e74726f6c3a2063616e206f6e6c792072656e6f756e636560008201527f20726f6c657320666f722073656c660000000000000000000000000000000000602082015250565b6000611f7c602f83611b00565b9150611f8782611f20565b604082019050919050565b60006020820190508181036000830152611fab81611f6f565b9050919050565b7f4e487b7100000000000000000000000000000000000000000000000000000000600052601160045260246000fd5b6000611fec82611c05565b9150611ff783611c05565b925082820190508082111561200f5761200e611fb2565b5b92915050565b7f45524332303a2064656372656173656420616c6c6f77616e63652062656c6f7760008201527f207a65726f000000000000000000000000000000000000000000000000000000602082015250565b6000612071602583611b00565b915061207c82612015565b604082019050919050565b600060208201905081810360008301526120a081612064565b9050919050565b7f596f752063616e2774206d696e74207468697320746f6b656e00000000000000600082015250565b60006120dd601983611b00565b91506120e8826120a7565b602082019050919050565b6000602082019050818103600083015261210c816120d0565b9050919050565b600061211e82611c05565b915061212983611c05565b925082820261213781611c05565b9150828204841483151761214e5761214d611fb2565b5b5092915050565b7f4e487b7100000000000000000000000000000000000000000000000000000000600052601260045260246000fd5b600061218f82611c05565b915061219a83611c05565b9250826121aa576121a9612155565b5b828204905092915050565b7f45524332303a20617070726f76652066726f6d20746865207a65726f2061646460008201527f7265737300000000000000000000000000000000000000000000000000000000602082015250565b6000612211602483611b00565b915061221c826121b5565b604082019050919050565b6000602082019050818103600083015261224081612204565b9050919050565b7f45524332303a20617070726f766520746f20746865207a65726f20616464726560008201527f7373000000000000000000000000000000000000000000000000000000000000602082015250565b60006122a3602283611b00565b91506122ae82612247565b604082019050919050565b600060208201905081810360008301526122d281612296565b9050919050565b7f45524332303a20696e73756666696369656e7420616c6c6f77616e6365000000600082015250565b600061230f601d83611b00565b915061231a826122d9565b602082019050919050565b6000602082019050818103600083015261233e81612302565b9050919050565b7f45524332303a207472616e736665722066726f6d20746865207a65726f20616460008201527f6472657373000000000000000000000000000000000000000000000000000000602082015250565b60006123a1602583611b00565b91506123ac82612345565b604082019050919050565b600060208201905081810360008301526123d081612394565b9050919050565b7f45524332303a207472616e7366657220746f20746865207a65726f206164647260008201527f6573730000000000000000000000000000000000000000000000000000000000602082015250565b6000612433602383611b00565b915061243e826123d7565b604082019050919050565b6000602082019050818103600083015261246281612426565b9050919050565b7f45524332303a207472616e7366657220616d6f756e742065786365656473206260008201527f616c616e63650000000000000000000000000000000000000000000000000000602082015250565b60006124c5602683611b00565b91506124d082612469565b604082019050919050565b600060208201905081810360008301526124f4816124b8565b9050919050565b7f45524332303a206275726e2066726f6d20746865207a65726f2061646472657360008201527f7300000000000000000000000000000000000000000000000000000000000000602082015250565b6000612557602183611b00565b9150612562826124fb565b604082019050919050565b600060208201905081810360008301526125868161254a565b9050919050565b7f45524332303a206275726e20616d6f756e7420657863656564732062616c616e60008201527f6365000000000000000000000000000000000000000000000000000000000000602082015250565b60006125e9602283611b00565b91506125f48261258d565b604082019050919050565b60006020820190508181036000830152612618816125dc565b9050919050565b7f45524332303a206d696e7420746f20746865207a65726f206164647265737300600082015250565b6000612655601f83611b00565b91506126608261261f565b602082019050919050565b6000602082019050818103600083015261268481612648565b9050919050565b600081905092915050565b7f416363657373436f6e74726f6c3a206163636f756e7420000000000000000000600082015250565b60006126cc60178361268b565b91506126d782612696565b601782019050919050565b60006126ed82611af5565b6126f7818561268b565b9350612707818560208601611b11565b80840191505092915050565b7f206973206d697373696e6720726f6c6520000000000000000000000000000000600082015250565b600061274960118361268b565b915061275482612713565b601182019050919050565b600061276a826126bf565b915061277682856126e2565b91506127818261273c565b915061278d82846126e2565b91508190509392505050565b7f4e487b7100000000000000000000000000000000000000000000000000000000600052604160045260246000fd5b7f4e487b7100000000000000000000000000000000000000000000000000000000600052603260045260246000fd5b600061280282611c05565b91506000820361281557612814611fb2565b5b600182039050919050565b7f537472696e67733a20686578206c656e67746820696e73756666696369656e74600082015250565b6000612856602083611b00565b915061286182612820565b602082019050919050565b6000602082019050818103600083015261288581612849565b905091905056fea26469706673582212204883d96e372a0a9db658fe96af521993432ae56148c9be8aa8fea165dd90892164736f6c63430008120033",
  "linkReferences": {},
  "deployedLinkReferences": {}
}